:020000040800F2
:100000006806002089010008E9020008E1020008F2
:10001000E502000843020008010500080000000096
:10002000000000000000000000000000B103000814
:100030004702000800000000EB0200089D040008D1
:10004000A3010008A3010008A3010008A301000800
:10005000A3010008A3010008A3010008A3010008F0
:10006000A3010008A3010008A3010008A3010008E0
:10007000A3010008A3010008A3010008A3010008D0
:10008000A3010008A3010008A3010008A3010008C0
:10009000A3010008A3010008A3010008A3010008B0
:1000A000A3010008A3010008A3010008A3010008A0
:1000B000A3010008A3010008A3010008A301000890
:1000C000A3010008A3010008A3010008A301000880
:1000D000A3010008A3010008A3010008A301000870
:1000E000A3010008A3010008A301000800F002F822
:1000F00000F03AF80AA090E8000C82448344AAF188
:100100000107DA4501D100F02FF8AFF2090EBAE885
:100110000F0013F0010F18BFFB1A43F0010318473B
:100120000004000020040000103A24BF78C878C101
:10013000FAD8520724BF30C830C144BF04680C60ED
:10014000704700000023002400250026103A28BF35
:1001500078C1FBD8520728BF30C148BF0B60704739
:100160001FB51FBD10B510BD00F031F81146FFF7E7
:10017000F7FF00F0C7F900F04FF803B4FFF7F2FF04
:1001800003BC00F057F800000948804709480047C1
:10019000FEE7FEE7FEE7FEE7FEE7FEE7FEE7FEE737
:1001A000FEE7FEE704480549054A064B7047000094
:1001B000A1040008ED000008680000206806002087
:1001C000680200206802002070477047704775463B
:1001D00000F02CF8AE4605006946534620F00700B3
:1001E000854618B020B5FFF7DDFFBDE820404FF091
:1001F00000064FF000074FF000084FF0000B21F011
:100200000701AC46ACE8C009ACE8C009ACE8C009DD
:10021000ACE8C0098D46704710B50446AFF30080C6
:100220002046BDE81040FFF7A8BF00000048704717
:100230000400002001491820ABBEFEE726000200A2
:10024000704700BFFEE770472248806940F0100009
:10025000204988612048006940F400501E49086127
:100260000846406820F4400048600846406820F492
:10027000401048601748806940F0040015498861C3
:100280001648006820F00C00144908600846006811
:1002900040F0080008600846006840F0020008606E
:1002A0000C48806940F001000A498861084680696D
:1002B00040F0040088610948001F006820F00C002D
:1002C0000649091F08600846006820F0030008601E
:1002D0007047000000100240001001400408014077
:1002E00000BFFEE700BFFEE7704770472E4800687A
:1002F00040F480302C49086000BF2B48006800F4AF
:1003000000300028F9D013202849086026484068AA
:10031000254948600846406840F4806048600846C7
:10032000406848600846406840F080604860084681
:10033000406820F4701048600846406820F480301F
:1003400048600846406820F400304860084640682D
:1003500040F4803048600846406820F4003048602F
:100360000846406840F4E01048600846006840F0E5
:100370008070086000BF0C48006800F00070002822
:10038000F9D00948406820F0030007494860084652
:10039000406840F00200486000BF0348406800F039
:1003A0000C000828F9D170470010024000200240DC
:1003B000704710B500F002F810BD00000CB5002029
:1003C000019000903348006840F480303149086063
:1003D00000BF3048006800F4003000900198401CD5
:1003E0000190009818B90198B0F5A06FF1D1294893
:1003F000006800F4003010B10120009001E00020FE
:1004000000900098012843D12348006840F0100074
:10041000214908600846006820F00300086008468B
:10042000006840F0020008601A48406819494860B6
:100430000846406848600846406840F4806048606C
:100440000846406820F47C1048600846406840F444
:10045000E81048600846006840F08070086000BFFF
:100460000C48006800F000700028F9D00948406886
:1004700020F00300074948600846406840F0020049
:10048000486000BF0348406800F00C000828F9D11C
:100490000CBD000000100240002002407047000028
:1004A00010B51348006840F0010011490860084683
:1004B0004068104908400E494860084600680E49E7
:1004C00008400B4908600846006820F48020086056
:1004D0000846406820F4FE0048604FF41F00886022
:1004E000FFF767FF4FF000600449086010BD00008F
:1004F000001002400000FFF8FFFFF6FE08ED00E0EC
:1005000000BFFEE7FFF7A0FEFFF7F0FE04E00348A0
:100510000068401C01490860F9E700000000002065
:100520004005000800000020040000002801000829
:10053000440500080400002064060000440100088F
:0405400000000000B7
:04000005080000ED02
:00000001FF
