:020000040800F2
:1000000068060020890100083D0300083503000848
:100010003903000843020008B70900080000000087
:100020000000000000000000000000004D08000873
:100030009902000800000000E704000839090008E0
:10004000A3010008A3010008A3010008A301000800
:10005000A3010008A3010008A3010008A3010008F0
:10006000A3010008A3010008A3010008A3010008E0
:10007000A3010008A3010008A3010008A3010008D0
:10008000A3010008A3010008A3010008A3010008C0
:10009000A3010008A3010008A3010008A3010008B0
:1000A000A3010008A3010008A3010008A3010008A0
:1000B000A3010008A3010008A3010008A301000890
:1000C000A3010008A3010008A3010008A301000880
:1000D000A3010008A3010008A3010008A301000870
:1000E000A3010008A3010008A301000800F002F822
:1000F00000F03AF80AA090E8000C82448344AAF188
:100100000107DA4501D100F02FF8AFF2090EBAE885
:100110000F0013F0010F18BFFB1A43F0010318473B
:10012000E408000004090000103A24BF78C878C130
:10013000FAD8520724BF30C830C144BF04680C60ED
:10014000704700000023002400250026103A28BF35
:1001500078C1FBD8520728BF30C148BF0B60704739
:100160001FB51FBD10B510BD00F031F81146FFF7E7
:10017000F7FF00F023FC00F04FF803B4FFF7F2FFA5
:1001800003BC00F057F800000948804709480047C1
:10019000FEE7FEE7FEE7FEE7FEE7FEE7FEE7FEE737
:1001A000FEE7FEE704480549054A064B7047000094
:1001B0003D090008ED0000086800002068060020E6
:1001C000680200206802002070477047704775463B
:1001D00000F02CF8AE4605006946534620F00700B3
:1001E000854618B020B5FFF7DDFFBDE820404FF091
:1001F00000064FF000074FF000084FF0000B21F011
:100200000701AC46ACE8C009ACE8C009ACE8C009DD
:10021000ACE8C0098D46704710B50446AFF30080C6
:100220002046BDE81040FFF7A8BF00000048704717
:100230000800002001491820ABBEFEE7260002009E
:10024000704700BFFEE700000348006820F002008E
:1002500001490860704700000C0C01400348006829
:1002600040F0020001490860704700000C0C01409A
:100270000348006840F00100014908607047000031
:100280000C0C01400348006820F00100014908609F
:10029000704700000C0C01407047000000B502469A
:1002A00000F07CFB1248C06920F001001049C861D1
:1002B0000846C06940F00100C861472089040885EC
:1002C00008468285008840F00100088000BF4FF09A
:1002D0008040008A00F001000028F8D04FF08040F4
:1002E000008820F001004FF08041088000BD000030
:1002F000001002400D48806940F010000B498861F1
:100300000B48006940F400500949086108464068FC
:1003100020F4400048600846406840F440104860BF
:100320000846C06820F40050C860704700100240C2
:100330000010014000BFFEE700BFFEE7704700006D
:100340003EB504468DF804400D48C06940F4804035
:100350000B49C861FFF796FF012202A901A800F02E
:1003600023FA072C06D0FF200090012202A968463C
:1003700000F01AFAFFF77CFF9DF808003EBD000070
:100380000010024010B50024FFF75EFF072000F0C8
:1003900039F80121022000F021F80321084600F07D
:1003A0001DF80521042000F019F84C21052000F06B
:1003B00015F80621084600F011F80221122000F07D
:1003C0000DF80020FFF7BCFF044644F0030421466B
:1003D000002000F003F8FFF741FF10BD38B50446D8
:1003E0000D4644F02004FFF74DFF009401216846BC
:1003F00000F090F900950121684600F08BF9FFF7B5
:1004000037FF38BD10B50446FFF71EFF41F28830B4
:10041000FFF744FF072C04D100210720FFF7DEFF80
:100420005EE0172C04D111211720FFF7D7FF57E00A
:1004300008210020FFF7D2FF3F210120FFF7CEFF68
:1004400003210220FFF7CAFF03210846FFF7C6FF7A
:1004500003210420FFF7C2FF02210520FFF7BEFFA2
:100460000E210620FFF7BAFF00210720FFF7B6FF95
:1004700000210820FFF7B2FFC3210C20FFF7AEFFD9
:10048000C4210D20FFF7AAFFC5210E20FFF7A6FF0C
:10049000C6210F20FFF7A2FF00211120FFF79EFFCA
:1004A00000211220FFF79AFF00211320FFF796FF8B
:1004B00000211420FFF792FF00211520FFF78EFF87
:1004C00000211620FFF78AFF11211720FFF786FF72
:1004D00000211C20FFF782FF00211D20FFF77EFF77
:1004E000FFF7BCFE10BD70472E48006840F4803016
:1004F0002C49086000BF2B48006800F40030002839
:10050000F9D01320284908602648406825494860EA
:100510000846406840F4806048600846406848608B
:100520000846406840F0806048600846406820F413
:10053000701048600846406820F4803048600846E3
:10054000406820F4003048600846406840F480303D
:1005500048600846406820F400304860084640681B
:1005600040F4E01048600846006840F08070086081
:1005700000BF0C48006800F000700028F9D009485E
:10058000406820F00300074948600846406840F092
:100590000200486000BF0348406800F00C000828D3
:1005A000F9D170470010024000200240564880698F
:1005B00040F00800544988615448006820F00C005D
:1005C000524908600846006840F0030008604F4840
:1005D0000C30006840F001004C490C3108604B4879
:1005E000006820F0C000494908600846006840F0F3
:1005F0003000086045480C30006820F00200434994
:100600000C3108604148001D006840F400003F497B
:10061000091D08600846006820F48000086008464C
:10062000006840F4401008600846006820F0006050
:1006300008600846006840F080600860084600686E
:1006400020F0407008600846006840F000400860F4
:100650000846006820F0804008600846006840F0C6
:10066000405008602848C06940F480402649C8616D
:1006700000BF2548C06900F48040B0F5804FF8D134
:100680002348008840F0040021490880084600887B
:1006900020F4004008800846008820F4806008802C
:1006A0000846008820F4006008800846008840F072
:1006B000180008800846008820F0200008800846BE
:1006C000008820F0020008800846008820F0010021
:1006D00008800846008840F40070088008460088BA
:1006E00040F4807008800846008820F08000088070
:1006F0000846008820F4005008800846008840F032
:10070000400008807047000000100240000C0140CB
:100710000038004010B502460020224B1B8843F0F1
:100720004003204C238000BF2DE04B1E83420CDD94
:1007300000BF1C4B08331B8803F00203022BF8D1C7
:10074000135C184C0C3423801BE000BF154B08339E
:100750001B8803F00203022BF8D1135C114C0C34FC
:10076000238000BF0F4B08331B8803F00203022BCA
:10077000F8D100BF0B4B08331B8803F08003002B1C
:10078000F8D1431C58B28842CFDB064B0C331B8890
:10079000044B08331B88034B1B8823F04003014C98
:1007A000238010BD0038004030B503460020264CA1
:1007B000248844F04004244D2C801C5C224D0C35D0
:1007C0002C8001201AE000BF1F4C0834248804F05C
:1007D0000204022CF8D11C5C1B4D0C352C8000BF90
:1007E000194C0834248804F00104002CF8D0164C6D
:1007F0000C342488E5B2441E0D55401C9042E2DBC7
:10080000541E844213D100BF0F4C0834248804F0D6
:100810000104002CF8D00C4C0C3424880C5400BF7C
:10082000094C0834248804F08004002CF8D1064CCC
:100830000C342488044C08342488034C248824F085
:100840004004014D2C8030BD00380040704710B589
:1008500000F002F810BD00000CB5002001900090DF
:100860003348006840F480303149086000BF3048A8
:10087000006800F4003000900198401C019000983E
:1008800018B90198B0F5A06FF1D12948006800F4BB
:10089000003010B10120009001E00020009000988D
:1008A000012843D12348006840F010002149086026
:1008B0000846006820F0030008600846006840F021
:1008C000020008601A4840681949486008464068B4
:1008D00048600846406840F48060486008464068C8
:1008E00020F47C1048600846406840F4E8104860F6
:1008F0000846006840F08070086000BF0C4800683F
:1009000000F000700028F9D00948406820F003008A
:10091000074948600846406840F00200486000BF50
:100920000348406800F00C000828F9D10CBD000015
:1009300000100240002002407047000010B513482C
:10094000006840F0010011490860084640681049FD
:1009500008400E494860084600680E4908400B49A7
:1009600008600846006820F4802008600846406857
:1009700020F4FE0048604FF41F008860FFF767FF17
:100980004FF000600449086010BD000000100240F4
:100990000000FFF8FFFFF6FE08ED00E000204FF03A
:1009A000804108808880088288818882088540F696
:1009B000FF708885704700BFFEE70000FFF79AFCD4
:1009C000FFF792FDFFF740FCFFF752FCFFF7EEFD4B
:1009D000FFF7D8FC13E00020FFF7B2FC084948708D
:1009E0000120FFF7ADFC064988700720FFF7A8FC3F
:1009F0000349C8700220FFF7A3FC01490871EAE728
:100A000000000020240A0008000000200800000068
:100A1000280100082C0A00080800002060060000D9
:0C0A20004401000800000000000000007D
:04000005080000ED02
:00000001FF
